:020000040800F2
:10000000C0BD0020B9020008D7560008CB3D00084B
:10001000D5560008610500082563000800000000AF
:10002000000000000000000000000000D9010008EE
:100030008D0600080000000035020008DD600008A1
:10004000D3020008D3020008D3020008D30200083C
:10005000D3020008D3020008D30200088F0600086C
:10006000D3020008D3020008D3020008D30200081C
:10007000D3020008D3020008D3020008D30200080C
:10008000D3020008D3020008D3020008D3020008FC
:10009000D3020008D3020008D3020008D3020008EC
:1000A000D3020008D3020008D3020008D3020008DC
:1000B000D3020008D3020008D3020008D93D00088B
:1000C000CD3D0008D3020008D3020008D302000887
:1000D000D3020008D3020008D3020008D3020008AC
:1000E000D3020008D3020008D3020008D30200089C
:1000F000D3020008D3020008D30200080000000069
:10010000D3020008D3020008D3020008D30200087B
:10011000D3020008D3020008E5610008D3020008FA
:10012000D3020008D3020008D3020008D30200085B
:10013000D3020008D3020008D3020008D30200084B
:10014000D3020008D3020008D3020008D30200083B
:10015000D3020008D3020008D3020008D30200082B
:10016000D3020008D3020008D3020008D30200081B
:10017000D3020008D302000839060008000000007E
:10018000D3020008D3020008D3020008D3020008FB
:10019000D3020008D30200080000000000000000A5
:1001A0000000000000000000190600083D4600089D
:1001B00031460008D3020008D3020008DFF814D04B
:1001C00000F0FEF800F0AEF800480047198B010877
:1001D00000F0D5F8C0BD00202C4B1968086800F06D
:1001E0005AB880F30988BFF36F8F4FF0000080F397
:1001F000118870470000000008480068006880F31C
:1002000008884FF0000080F3148862B661B6BFF32F
:100210004F8FBFF36F8F00DF00BF00BF08ED00E01E
:10022000DFF80C00016841F470010160704700BF05
:1002300088ED00E0EFF30980BFF36F8F134B1A686E
:100240001EF0100F08BF20ED108A20E9F04F10605B
:1002500009B44FF0500080F31188BFF34F8FBFF304
:100260006F8F1AF0E5F94FF0000080F3118809BC98
:100270001968086800F014B81EF0100F08BF00F0ED
:1002800014B880F30988BFF36F8F7047400D0020CA
:10029000EFF30580704730C8B0E8C04FFFF7A1BF4B
:1002A00030C8B0E8C04FFFF7E7BFB0EC088AB0EC49
:1002B00008CAFFF7E6BF0000064880470648004727
:1002C000FEE7FEE7FEE7FEE7FEE7FEE7FEE7FEE706
:1002D000FEE7FEE7A1610008BD01000840EA010356
:1002E0009B0703D009E008C9121F08C0042AFAD2EC
:1002F00003E011F8013B00F8013B521EF9D27047B0
:10030000D2B201E000F8012B491EFBD27047002257
:10031000F6E710B513460A4604461946FFF7F0FF04
:10032000204610BD70B5054C054D03E02068204403
:100330008047241DAC42F9D170BD0000A0C7010860
:10034000B4C701082DE9F041074615460E461020B6
:1003500018F04CFC04000AD06760C4E9026500F0A4
:1003600009F80168216004600020BDE8F0810120E7
:10037000FBE70000004870472C0F002070472DE974
:10038000F0410646FFF7F6FF8046454613E016B1FA
:10039000E068B0420ED120682860D4E90101D8F8A5
:1003A00000708847204618F00FFBD8F80000B842CC
:1003B000EBD100E025462C68002CE8D1BDE8F081A7
:1003C000064C074D06E0E06840F0010394E80700A2
:1003D00098471034AC42F6D3FFF7F4FE80C701080B
:1003E000A0C70108704770B58C1810F8015B15F0B4
:1003F000070301D110F8013B2A1106D110F8012B97
:1004000003E010F8016B01F8016B5B1EF9D12B07BB
:1004100005D40023521E0DD401F8013BFAE710F871
:10042000013BCB1A921C03E013F8015B01F8015B5E
:10043000521EF9D5A142D8D3002070BDF0B595B0B9
:100440000646002440F2FA500094CDE90140042011
:100450000390102004908001CDE906404FF44050F5
:1004600008904FF080600E9002200F9006201190AF
:1004700008200590000209900B9400041090800061
:10048000CDE91204012741F28835012000F0B0FFC8
:100490002A466946304602F0D5F928B92A4614A9F9
:1004A000304602F07BFB10B1012015B0F0BD9DF885
:1004B00050003840A042E8D10020F6E7044A10B5C9
:1004C000126813690A46014684209847002010BD2F
:1004D000840C0020024909688A6A0146842010477A
:1004E000840C0020024909684A6A014684201047AA
:1004F000840C002070B5114C00252068D8B9104834
:100500004169842088470A2000F072FF0D4E842044
:1005100071688847C0B27B2801D079280AD126604B
:10052000316839B18420884720680749C26884202F
:10053000904700E00125284670BD0000840C002093
:10054000B40C0020880C0020FFFF0300034A12684F
:1005500053690A460146842018470000840C002095
:10056000FEE70000254A10B4136823F0010313606E
:10057000234A1368C3F30B1C0123ACF54064243CED
:1005800007D01268C2F30B12A2F5406CBCF1270C25
:100590002AD11C4A12683ABB1B4AD2F800C0CCF3DD
:1005A0000B0CBCF58A6F0FD0D2F800C0CCF30B0C4B
:1005B000ACF58064833C07D01268C2F30B02A2F54D
:1005C000806CBCF1850C0FD1104A13601368002BAE
:1005D000FCD10F4A10601068884202D010BC002085
:1005E000704710BC012070470A4A93609368002B43
:1005F000FCD1106010688842F3D0EFE7002000E0E3
:1006000000ED00E0002004E00010005C084C0258FF
:10061000004C025800300240014800F00DB90000C3
:10062000901C002010B542EA8111029C41EA03218E
:1006300041EA0441C16610BD014800F02ABC000037
:10064000F01C00202DE9F0479846164689460446DE
:10065000DDF820A001F040F905464FF47A7707E075
:1006600001F03AF9401BB84202D90320BDE8F087F7
:100670002068406FC007F3D046EA891141EA08219B
:1006800041EA0A402168C8660020EFE7704702206F
:1006900001F00EB8F0B5044600201E23012601E04B
:1006A0005B1E05D303F01F0706FA07F50D42F7D0CE
:1006B00072B1082A0AD0102A05D0182A01D1072BB6
:1006C00006D30120F0BD082BFBD201E0102BF8D29D
:1006D0002368596121688B6823F0180313438B60EA
:1006E000F0BD000010B5040010D0607F20B90020DC
:1006F0002077204600F030F802206077207938B16A
:10070000D4E902122046FFF7C5FF48B1012010BD11
:100710002168104848612068816821F018018160D3
:100720006079A0B1206921680861206881686269E8
:1007300021F060011143816020688168A26921F085
:1007400080011143816001206077002010BD4FF0CF
:10075000FF30E8E7B71DC10408B5006806498842C4
:1007600008D10648816C41F480518164806C00F4AA
:100770008050009008BD0000003002400010024090
:1007800070470000F0B590F85820012A2CD00126BF
:1007900080F85860022280F8592001EB410200EBFA
:1007A000C202158F148ED36A978F2D0543EA044435
:1007B00045EA47552C431F4D28320A2B16D0092BEA
:1007C00014D0137B44EA03630029016813D0CC6979
:1007D000AC431C43CC6103681168196151680A2954
:1007E0001BD0092919D01DE00220F0BDD36803F009
:1007F0007F432343E8E74C6AAC431C434C620368E5
:100800001168996151680A2901D009290AD1D16872
:10081000026821F07F41916204E0D168026821F012
:100820007F41116280F85960002180F85810084615
:10083000F0BD00000F0033FF2DE9F04704460068CB
:1008400046680568F1074FF004084FF000074FF0C5
:10085000010914D0E90512D5016821F48071016005
:10086000E06D40F00100E0652168C1F8089084F86F
:10087000598084F85870616A09B120468847B006EB
:1008800015D5A80413D52068016821F40051016032
:10089000216820208860E06D40F00200E06584F867
:1008A000598084F85870616A09B12046884730073A
:1008B00015D5280513D52068016821F40061016071
:1008C000216808208860E06D40F00400E06584F84D
:1008D000598084F85870616A09B1204688477007CA
:1008E0000CD568050AD52068016821F48061016093
:1008F0002168C1F80880204600F06EF8B00713D5D3
:10090000A80511D52068016821F4007101602168F3
:1009100002208860E06DE06584F8599084F8587092
:10092000216A09B120468847F00612D5E80410D59F
:100930002068016821F480510160216810208860DE
:10094000E06DE06584F8599084F858702046FFF710
:1009500017FFBDE8F087000070B5040004D094F8DC
:100960005900002510B106E0012070BD84F85850F0
:10097000204600F033F8022084F859006168E069ED
:10098000014320680268134B1A4011430160A168BB
:10099000A06901432068426B40F207139A43114358
:1009A00041632068016CE2686FF30F011143016439
:1009B000208AA18A000540EA41512068426B22F456
:1009C000401211434163E565012084F8590000207D
:1009D00070BD0000BFFFF8FF7047000008B5006859
:1009E0000B49884212D10B48816C41F4003181647B
:1009F000806C002200F40030009005215A2001F0A4
:100A00003DFDBDE808405A2001F02BBD08BD0000A7
:100A100000B002400010024010B590F825100024EC
:100A2000022903D00421C16301242BE001680A6874
:100A300022F00E020A6001680A6822F001020A60D0
:100A4000816C0A6822F480720A6090F84410036C8A
:100A500001F01C01012202FA01F15960D0E91313DF
:100A60004B60416D31B10B6823F480730B60D0E9AA
:100A700016134B6080F82520002180F82410816B2C
:100A800001B18847204610BD90F82500704730B569
:100A9000027C012A7DD0012202740268536B43F06C
:100AA000010353630268D2F8003423F00103C2F853
:100AB00000340268D2F8003443F00103C2F8003475
:100AC0000268D36823F00303D3600268D3680C681C
:100AD0002343D3600268536923F00703536103681B
:100AE0005A69CC692243D1E905542C4322435A6107
:100AF0000268136923F00F031361026813694C68DD
:100B0000234313610268D2F8003423F00E03C2F8C5
:100B100000340268D2F800344C6843EA4403C2F857
:100B200000340268536E6FF30F0353660268536E0E
:100B30008C68234353660268D2F8003423F0F00334
:100B4000C2F80034D1E903231A43D1E9084323430F
:100B50001A430368D3F800442243C3F80024026810
:100B6000936E23F0010393660268936E896A0B43C8
:100B700093660168D1F8082442F00102C1F8082404
:100B80000168D1F8082442F00202C1F808240021CB
:100B900000E002E00174084630BD022030BD0000D4
:100BA00010B5027C012A2FD0012202740268936ED4
:100BB000164C23409366D1E900231A43D1E902344D
:100BC00023431A430B691A434B691A438B691A432F
:100BD000CB691A430B6A1A434B6A1A438B6A1A434E
:100BE000CB6A1A4303689C6E22439A660268936E2E
:100BF00023F0020393660268936E096B0B439366BE
:100C000000210174084610BD022010BDFF80F0FED7
:100C100030B5027C012A5DD00122027403680022F3
:100C2000C3F8C4200368C3F8C8208161CB0706D08D
:100C3000036853F8C44F4FF6FF752C431C608B07B5
:100C400005D5036853F8C44F44F4F8141C604B07EF
:100C500005D5036853F8C84F44F001041C600B0726
:100C600005D5036853F8C84F44F002041C60CB0656
:100C700005D5036853F8C84F44F00C041C608B067C
:100C800005D5036853F8C84F44F010041C604B06A8
:100C900005D5036853F8C84F44F020041C600B06C8
:100CA00005D5036853F8C84F44F040041C60CB05D9
:100CB00005D5036853F8C84F44F080041C608905CB
:100CC00005D5016851F8C83F43F4F8530B6002742E
:100CD000002030BD022030BD027C012A0ED001224E
:100CE00002740268D36A23F01F03D3620268D36AD6
:100CF0000B43D362002101740846704702207047FD
:100D000010B5027C012A6AD001220274026893683D
:100D100023F47F439360026893680C6843EA0423DA
:100D200093600268936F9BB293670268936F8C889D
:100D300043EA044393670268936F6FF30F0393676B
:100D40000268936F8C68234393670268D36F6FF3D5
:100D50000F03D3670268D36FCC682343D36702685D
:100D600052F8803F6FF30F031360026852F8803F20
:100D70000C6923431360026852F8843F6FF30F033A
:100D80001360026852F8843F4C6923431360026881
:100D900052F8843F23F080731360026852F8843F56
:100DA0008C6923431360026852F8883F6FF30F0386
:100DB0001360026852F8883FCC69234313600268CD
:100DC00052F88C3F6FF30F031360026852F88C3FA8
:100DD000096A0B43136000210174084610BD02200C
:100DE00010BD30B5027C012A36D001220274D1E94F
:100DF0000023934200D91A46036853F8984F04F031
:100E0000FC241C60036853F8984F42EA02421443E2
:100E10001C60026852F89C3F03F4004313600368AF
:100E200053F89C2F0C690D7A22438C89240444EAE0
:100E3000056422431A60026852F8A43F23F47F43FA
:100E40001360026852F8A43F496943EA0121116026
:100E500000210174084630BD022030BD10B518F0E5
:100E600003FB02280ED100200AF0ACFA064900204C
:100E7000087006480068002804D00168C969BDE808
:100E80001040084710BD000000000020100F002097
:100E9000704710B504460068D0F80C14C90709D093
:100EA000D0F80814C90705D00121C0F81014204655
:100EB00000F05EFA2068D0F80C14890709D5D0F844
:100EC0000814890705D50221C0F810142046FFF741
:100ED000C5FFA06900284DD0206850F8BC2F81685C
:100EE00011404268C06810400A04120C03D06269C5
:100EF00042F00102626111F4F81F03D0616941F010
:100F000002016161C10703D0616941F004016161BF
:100F1000810703D5616941F00801616110F00C0F90
:100F200003D0616941F010016161C10603D56169B7
:100F300041F020016161810603D5616941F0400102
:100F40006161410603D5616941F08001616101067B
:100F500003D5616941F48071616110F4F85F03D0D9
:100F6000606940F4007060616069002802D020462A
:100F7000FFF78EFF10BD00002DE9F8430D46040079
:100F800002D0607C18B105E00120BDE8F88320465E
:100F900000F010F90320607420684FF00008D0F8CA
:100FA000301441F08071C0F830142068D0F830045B
:100FB00000F08070009000F08FFC06464FF47A77C6
:100FC00005E000BF00F088FC801BB8422FD82068E5
:100FD000D0F80C04C004F5D52068D0F83014414A8C
:100FE0001140C0F830142068D0F830142A682B89DA
:100FF00041EA82016A68D20242EA03421143C0F820
:1010000030142068D0F8301441F00101C0F83014D9
:101010002068D0F8300400F00100009000F05CFC83
:10102000064606E000F058FC801BB84201D90320B8
:10103000ABE72068D0F80C04C005F3D5206850F861
:10104000A01F41F006010160206850F8941F21F0B4
:1010500003010160206850F8941F6268114341F059
:1010600001010160206850F8A41F21F00301016014
:10107000206850F8A41FE26811430160206881686D
:1010800021F0FF01816020688168A26811438160BE
:10109000686800B9012014494FF47A524843297A0C
:1010A00001F00301884029685143B0FBF1F0216849
:1010B000D1F8182422F03F02C1F818242168D1F891
:1010C00018240243C1F818242168C1F8C48021689B
:1010D000C1F8C880C4F81880C4F814800120607476
:1010E000002052E70386FCFF00093D002DE9FF4F79
:1010F00081B00446DDE90EA6007C1D46934601281A
:1011000009D00120207400F0E7FB07464FF00008EB
:101110004FF47A790DE0022005B000F048B800BF26
:1011200000F0DAFBC01B484503D984F81080032087
:10113000F2E72068406FC007F2D05046032D02D27C
:101140002B46002108E0032300210827725C07EBEF
:10115000C107BA401043491C9942F6D32168086779
:10116000EA1A13E0042A01D2134600E00423002106
:10117000084606E0375C4FEAC00C07FA0CF7394323
:10118000401C9842F6D320680167D21A1E44002AF8
:10119000E8D16D1CC5F307200090EBB25A462068D9
:1011A0000299FFF73FFA84F810800020B4E730BCC2
:1011B000BDE8C08F10B598B00446142111A8FFF700
:1011C000A6F81E492068884235D1684602F02CF9FD
:1011D0000198002448B901200090000401900A946D
:1011E000684602F0EFF900B1FEE71548016E41F0E4
:1011F00000610166016E01F000611691C16C41F061
:101200002001C164C06C11A900F0200016904FF4B9
:10121000006011900220CDE912040B20CDE91440AA
:10122000084800F051FA002205214E2001F026F96D
:101230004E2001F016F918B010BD0000006C0140FE
:101240000010024000140048017C01290CD001214B
:1012500001740168D1F8042442F00402C1F80424A6
:10126000002101740846704702207047027C012A61
:101270000ED0012202740268136B23F00303136380
:101280000268136B0B431363002101740846704717
:1012900002207047027C012A13D0012202740268E6
:1012A000D2F81C3423F0C063C2F81C340268D2F8B0
:1012B0001C3443EA4161C2F81C1400210174084641
:1012C00070470220704738B504460498257C012DEC
:1012D00008D00125257400902046FFF7B3F90021BE
:1012E000217438BD022038BD08B5017C01291BD00E
:1012F00001210174016800224B6843F001034B6037
:1013000001684B6803F001030093D1F8043443F003
:101310000803C1F804340168D1F8041401F008018D
:1013200000910274002008BD022008BD08B5017CB0
:1013300001291BD001210174016800224B6823F0B0
:1013400001034B6001684B6803F001030093D1F87F
:10135000043423F00803C1F804340168D1F80414FC
:1013600001F0080100910274002008BD022008BDB0
:1013700070B5064618F078F81B4C1C4D022810D1A9
:10138000002009F0F9FF286810F8661F491C017059
:1013900005F05AFFA07820B9286810B1617880F86C
:1013A0004A10607808B1207840B118F05DF8022842
:1013B00018D1BDE8704000200AF004B818F054F8C5
:1013C000022807D1A07818B1286808B108F0B2FD4A
:1013D00001202070002003F017F93046BDE870406E
:1013E000FFF732BF70BD000000000020100F00208A
:1013F00070B5044600F070FA0546601C02D004483F
:101400000078044400F068FA401BA042FAD370BD93
:10141000300D0020F0B50546002095F82440012C41
:1014200003D18C18B4F5806F01D90120F0BD2E686E
:101430004FF4805505EBC10541F2040707EBC101EC
:1014400000243544314406E040CB45F8086B40CBDE
:1014500041F8086B641C9442F6D3F0BD70B50446A5
:10146000002094F82430012B03D18B18B3F5806F42
:1014700001D9012070BD25684FF4805404EBC104EC
:1014800041F2040606EBC10100232C4429441D4609
:1014900005E000BF44F8085B41F8085B5B1C934221
:1014A000F8D370BD70B504004FF000050FD000F008
:1014B0002BF82068016821F05F0101602068016855
:1014C000626811430160207F012802D006E00125F7
:1014D00018E020680168226A114301602168A06851
:1014E00008612168E0680862216820694862216813
:1014F000606988622168A069C8620020A06201203A
:1015000084F82400284670BD08B500680649884262
:1015100008D10648816C41F480218164806C00F41C
:101520008020009008BD000000C002400010024072
:101530002DE9F84F00230126DFF83CC10F2794E086
:1015400006FA03F414EA01027ED023F00305654491
:10155000AA46D5F808909D074FEA157E07FA0EF5C2
:1015600005EA090B0095B0F1904F05D0434DA84214
:1015700005D14FF0010828E04FF0000825E0404D6C
:10158000A84202D14FF002081FE03E4DA84202D10E
:101590004FF0030819E03C4DA84202D14FF0040877
:1015A00013E03A4DA84202D14FF005080DE0384D46
:1015B000A84202D14FF0060807E0364DA84202D1FA
:1015C0004FF0070801E04FF0080808FA0EF8D84578
:1015D00024D1DFF8C480D8F8009029EA0209C8F8BD
:1015E000009008F10408D8F8009029EA0209C8F828
:1015F000009008F10408D8F8009029EA0209C8F818
:10160000009008F10408D8F800509543C8F800503D
:10161000009ADAF808509543CAF80850D0F80080CC
:101620004FEA4309032202FA09F248EA0208C0F825
:101630000080DD0800EB8505AA46D5F820804FEA3A
:1016400043794FEAD96900E00EE007FA09F528EA84
:101650000508CAF820808568954385604568A543DC
:101660004560C4689443C4605B1C31FA03F27FF4A4
:1016700067AF00F013B8000000000140000400480C
:1016800000080048000C0048001000480014004802
:1016900000180048001C00480004014018BCBDE8C8
:1016A000E08F00000148006918F028B834000020DD
:1016B000044910B50A68024202D00860FFF7F2FF41
:1016C00010BD0000140401402DE9FC4FDFF8B4A167
:1016D000002301250AF1040B03244FF00F0C0BF13A
:1016E000040EC7E005FA03F632406FD04F68012FB1
:1016F00005D0022F03D0112F01D0122F17D1D0F80F
:1017000008905F0004FA07F829EA08090097D1F861
:101710000C8008FA07F848EA0908C0F8088047680A
:10172000B7430E79C6F300169E403E434660C66836
:101730004FEA430804FA08F7BE4301978F6807FA97
:1017400008F73743C7604E68022E01D0122E13D11E
:10175000DE0800EB86060096366A5F07FF0E0CFA7D
:1017600007F926EA0906D1F8109009FA07F949EABB
:101770000609009EC6F820900668019FBE430F79B7
:1017800007F0030707FA08F7374307604E68F600CB
:101790006FD53D4E376E47F001073766366E23F042
:1017A000030706F001060096384E3E44B146B6687F
:1017B0009F074FEA17780CFA08F7BE43B0F1904F35
:1017C00005D0334FB84204D1012721E051E0002772
:1017D0001EE0304FB84201D1022719E02E4FB84227
:1017E00001D1032714E02D4FB84201D104270FE0A7
:1017F0002B4FB84201D105270AE02A4FB84201D148
:10180000062705E0284FB84201D1072700E0082746
:1018100007FA08F73743C9F80870DAF80060574646
:10182000D1F8048096435FEAC83800D516433E607D
:10183000DBF800605F46D1F8048096435FEA8838A1
:1018400000D516433E60DEF800607746D1F804808C
:1018500096435FEAC82800D516433E60094F0C370F
:101860003E68D1F8048096435FEA882800D5164385
:101870003E605B1C0A6832FA03F67FF433AF00F077
:1018800015B80000000401400010024000000140B3
:101890000004004800080048000C00480010004800
:1018A0000014004800180048001C00481CBCBDE89B
:1018B000E08F0069084000D001207047426921EAAA
:1018C00002030A4043EA0241816170470AB1816123
:1018D00070478162704700000148806870470000CF
:1018E000300D002090F84120202A24D190F840208B
:1018F000012A20D0012280F84020242280F84120B3
:101900000268136823F0010313600268136823F46C
:1019100080531360026813680B43136001680A6800
:1019200042F001020A60202180F84110002180F875
:101930004010084670470220704790F84120202A46
:1019400022D190F84020012A1ED0012280F84020A8
:10195000242280F841200268136823F001031360F9
:101960000268136823F4706343EA0121116001687F
:101970000A6842F001020A60202180F8411000212B
:1019800080F8401008467047022070477047704743
:1019900010B5040013D0242084F8410020680168A9
:1019A00021F001010160204600F0A0FA00206064EF
:1019B00084F8410044F8300FA074207410BD012059
:1019C00010BD30B403689A691968D243D40509D4AC
:1019D000CC43240606D4446C44F0010444644FF420
:1019E0008074DC6153050AD4CB431B0607D4436CD7
:1019F00043F00803436404684FF48063E361920595
:101A00000AD4C943090607D4416C41F0020141647C
:101A100002684FF40071D161416C11F00B0F02D0DC
:101A200030BC02F06FBA30BC70470268916912682E
:101A3000436B002B00D018477047704770B5040007
:101A400004D094F84100002510B106E0012070BDDB
:101A500084F84050204600F06DFA242084F84100BC
:101A60002068016821F0010101606068216820F0B0
:101A7000706008612068816821F400418160E0683D
:101A80000128A06807D040F4044021688860E0681D
:101A9000022803D006E040F40040F6E721684FF446
:101AA0000060486020684168114A11434160206825
:101AB000C16821F40041C160D4E904010843A1696F
:101AC00040EA01202168C860D4E907010843216881
:101AD00008602068016841F0010101606564202010
:101AE00084F84100256384F84250002070BD000056
:101AF000008000022DE9FC4700260446019690F87C
:101B000041001F469246894620287ED12068806980
:101B1000C043000479D594F84000012875D0012015
:101B200084F84000242084F8410066644FF02008C7
:101B3000E068012809D029F4544040F4205021687D
:101B40004860FFF7C9FE05460DE0314949EA01004A
:101B500030490840F3E7781C05D0FFF7BDFE401B75
:101B6000B84219D8C7B1216888698969C0F34010A3
:101B7000C1F300110843EED0206880693B46C043A2
:101B8000C0064FF000024FF020012046009517D507
:101B900002F097FC68BB09E084F8418054F8440FD8
:101BA00040F0200044F80409267022E02168C1F8C2
:101BB0001C8084F8418084F84060002000F02CB83C
:101BC00002F07FFCA8B921681020C8612168C1F823
:101BD0001C800198504512D12068416841F4804131
:101BE00041603B46002220212046009502F069FC1E
:101BF00010B10120E2E708E02168C1F81C800198DB
:101C0000401C0190504593D3C6E70220D6E7000060
:101C100000200002FF2300020CBCBDE8F0877047E3
:101C20002DE9FF4F83B00446DDE9108790F84100AD
:101C3000DDF848909A469346202874D15FEA080060
:101C400014D09FB194F8400001286CD0012084F892
:101C50004000FFF741FE0646012200901923D10300
:101C6000204602F02EFC002871D103E04FF40070F2
:101C700060646CE0222084F84100402084F8420037
:101C800000256564C4F8248067856563CDE9009606
:101C900053465A462046049902F0F4FA10B184F8EB
:101CA000405054E0618D3548FF274FF080784FF069
:101CB000007AFF2904D927853A464346009005E07B
:101CC000618D2185009094F8282053462046049980
:101CD00002F0CCFB4B46002204212046009602F085
:101CE000F0FBA0BB2068406A616A0870606A401C13
:101CF0006062208D401E81B22185608D401E60850E
:101D0000608DD8B1D1B94B46002280212046009683
:101D100002F0D7FBD8B9608DFF2805D927853A4650
:101D20004346009506E026E0608D2085009594F8F6
:101D3000282053462046049902F098FB608D002825
:101D4000C8D132464946204602F0E7FB18B10120CF
:101D500007B000F017B821682020C86121684A68E0
:101D6000074B1A404A6084F8410084F8425084F8D6
:101D700040500020ECE70220EAE700000024008049
:101D800000E800FE30BCBDE8C08F00002DE9FF4F29
:101D900083B00446DDE9108790F84100DDF84890F3
:101DA0009A469346202871D15FEA080014D09FB16B
:101DB00094F84000012869D0012084F84000FFF722
:101DC0008BFD0646012200901923D103204602F024
:101DD00078FB00286ED103E04FF40070606469E086
:101DE000212084F84100402084F8420000256564E9
:101DF000C4F8248067856563CDE9009653465A464A
:101E00002046049902F070FA10B184F8405051E075
:101E1000608DFF274FF080784FF0007AFF2804D9BB
:101E200027853A464346009505E0608D208500955C
:101E300094F8282053462046049902F017FB3246B6
:101E40004946204602F08FFBA0BB606A21680078FB
:101E50008862606A401C6062608D401E6085208DD3
:101E6000401E80B22085618DD9B1D0B94B46002289
:101E700080212046009602F024FBD8B9608DFF280F
:101E800005D927853A464346009506E026E0608D51
:101E90002085009594F8282053462046049902F0A6
:101EA000E5FA608D0028CAD132464946204602F044
:101EB00034FB18B1012007B000F014B820682021CD
:101EC000C16120684268064B1A40426084F84110A4
:101ED00084F8425084F840500020ECE70220EAE702
:101EE00000E800FE30BCBDE8C08F000010B50068FF
:101EF0000C49884215D10C48816D21F4001181658F
:101F000040210A48FFF714FB4FF400510848FFF73F
:101F10000FFB1F2000F094FABDE81040202000F0D5
:101F20008FBA10BD00540040001002400004004869
:101F3000001800482DE9F04186B004461421684697
:101F4000FEF7E5F92249206888423DD1214CE06C3A
:101F500040F00200E064E06C00F002000590E06CEC
:101F600040F04000E064E06C00F04000059000F0BC
:101F70000FFF40201225012603274FF004088DE8AB
:101F8000E10169461448FFF79FFB70038DE8E1010A
:101F900069461248FFF798FBA06D40F40010A06559
:101FA000A06D002200F40010059005211F2000F014
:101FB00065FA1F2000F055FA00220521202000F0CC
:101FC0005DFA202000F04DFA06B0BDE8F081000077
:101FD000005400400010024000040048001800486F
:101FE00070477047024881680278114481607047E9
:101FF000300D002010B50024032000F05FFA00200F
:1020000000F008F808B1012401E000F0FFF92046D3
:1020100010BD000000B5014687B00022362000F058
:102020002DFA362000F01DFA1348816D41F01001A1
:102030008165806D05A900F010000690684601F0EA
:10204000D3F901F063FA0D490D4AB0FBF1F10D48E7
:10205000491E0260416040F2E7320021C0E90321DD
:10206000816001F06EFD10B1012007B000BD054890
:1020700001F09AFDF9E700000010024040420F0015
:10208000001000407C1E00202DE9F041044690F82D
:10209000A00016460F4601281DD0012584F8A05047
:1020A000022084F8A10006EB860000EBC60004EBDA
:1020B000800034223830FEF711F932463946204686
:1020C00002F0C2FA2068456284F8A150002084F82A
:1020D000A000BDE8F0810220FBE710B5044600F047
:1020E000EBF80020C4F8A40084F8A10084F8A00054
:1020F00010BD70472DE9F04104460068856B466BC2
:1021000069074FF004084FF0000715D5710713D584
:10211000416B21F0040141632168C1F83C80D4F88F
:10212000A41041F00101C4F8A41084F8A18084F83F
:10213000A0702046FFF7DDFFA80716D5B00714D51D
:102140002068416B21F00201416321680220C863CD
:10215000D4F8A40040F00200C4F8A40084F8A180E0
:1021600084F8A0702046FFF7C4FF05EA0600C00708
:102170004FF001080ED02068416B21F0010141634E
:102180002168C1F83C8084F8A18084F8A0702046C2
:1021900000F090F8280710D530070ED52068416B65
:1021A00021F00801416321680820C86384F8A180F8
:1021B00084F8A070204600F0BDF8BDE8F081000072
:1021C00070B5040004D094F8A100002510B106E019
:1021D000012070BD84F8A050204600F085F8022050
:1021E00084F8A1002068816921F070418161D4E9FF
:1021F00001010843D4E903121143084321688A69A5
:102200001043886121688A68294802408A60A18A4F
:102210000A0421688B68A669334313438B602168E5
:10222000CA680240CA60A18B0B042168CA68266A8A
:1022300032431A43CA6021680A6902400A61A18CCC
:1022400022680B041169A66A3143194311612168A0
:102250004A6902404A61A08D010420684269236BEB
:102260001A430A43426194F835002168020294F847
:102270003600CB6A03F07F43CB622168CB6A94F8C7
:10228000346042EA004033430343CB622068416B31
:1022900041F0060141632068816941F001018161DB
:1022A000C4F8A450012084F8A100002070BD0000F3
:1022B00000F800F07047000010B500680849884237
:1022C0000CD10848016E21F0806101665B2000F0AE
:1022D000B7F8BDE810405C2000F0B2B810BD0000B7
:1022E000006801400010024008B500680F498842AC
:1022F0001AD10F48016E41F080610166006E002224
:1023000000F08060009005215B2000F0B7F85B20B2
:1023100000F0A7F8002205215C2000F0AFF8BDE82E
:1023200008405C2000F09DB808BD00000068014036
:1023300000100240704770B5044690F8A0000B46AC
:10234000012818D0012584F8A050022084F8A100AB
:1023500002EB820000EBC20004EB80012046CB655B
:10236000383102F071F92068456284F8A1500020EC
:1023700084F8A00070BD022070BD000070B590F818
:10238000A030012B36D0012480F8A040022380F831
:10239000A13002EB820303EBC20300EB83039B6CCF
:1023A00053B3012B2AD0042B2AD0022B28D0032B85
:1023B00026D0072B24D0012359430B04B0210568F4
:1023C00001EBC2116A580F4E32406A500E4A15682E
:1023D00045F00105156005686E581E436E50116882
:1023E00041F00101116080F8A140002180F8A010A7
:1023F000084670BD022070BD0423DDE70323DBE740
:102400000223D9E7FFFF00E0246801400B4882B0B7
:10241000016E41F001010166016E01F001010091C0
:10242000816D41F080518165806D002200F0805007
:1024300000900F21901E02B000F020B80010024062
:1024400000280DDB00F01F020121914040098000AF
:1024500000F1E020C0F88011BFF34F8FBFF36F8F02
:102460007047002809DB00F01F020121914040095C
:10247000800000F1E020C0F800117047F0B40E4B6E
:102480001B680C46C3F30223C3F10705042D00D9D2
:102490000425191D072901D2002300E0DB1E0126B7
:1024A00006FA05F1491E214099409E40761E1640CD
:1024B0003143F0BC15F02EBF0CED00E0064900F0F2
:1024C000070208684FF6FF03184040EA0220034A5B
:1024D00010430860704700000CED00E00000FA05B2
:1024E0002DE9F04F0C46DFF8A0B201684FF000096B
:1024F0008BB082464E46594502D10025012001E0AD
:10250000012500208046002707EB8701684600EB85
:1025100081017F1CF8B203F0DFF820B108204FF0F2
:102520000109CAF84800FFB2022FEDD3B9F1000F3C
:102530007ED1DBF80000DA46C00707D0DAF80010D9
:1025400021F00101CAF8001046F00106DFF83CB2A4
:10255000DBF80000C00707D0DBF8001021F0010114
:10256000CBF8001046F0020605EB85076A4602EB41
:1025700087039868810086480144D1F800CC2CF488
:10258000807CC1F800CC5DF82770012167B300EBB7
:102590008707D7F800CC2CF0010CC7F800CC5F6897
:1025A0003FB100EB8707D7F800CC2CF0100CC7F830
:1025B00000CCD3F80CC0BCF1000F09D021EA0C0705
:1025C00000EB8707D7F804CC2CF4803CC7F804CC88
:1025D0001F694FB121EA070300EB8303D3F8047CA2
:1025E00027F08077C3F8047C08EB8807236852F84B
:1025F00027C0E646634518D002EB8703D4F804C031
:10260000D3F80480C44510D0D4F808C0D3F80880AB
:10261000C4450AD0D4F80CC0D3F80C80C44504D00B
:10262000D4F810C01B699C4536D100EB8E0300E046
:10263000A5E0D3F800CC2CF0010CC3F800CC02EBE1
:1026400087035A683AB100EB8202D2F8007C27F087
:102650001007C2F8007C9A6800EB8202D2F8007C76
:1026600027F48077C2F8007CDF684FB121EA0702C7
:1026700000EB8202D2F8047C27F48037C2F8047C95
:102680001B694BB121EA030200EB8202D2F8043C41
:1026900023F08073C2F8043CA26800EB8202D2F8F7
:1026A000003C23F4407343EA452343F48073C2F8AB
:1026B000003C226800EB8202D2F8003C01EB4507A7
:1026C00023F003033B43C2F8003C62685AB100EBBD
:1026D0008202D2F8003C23F0300343EA451343F072
:1026E0001003C2F8003CE268D3030CD521EA0203D0
:1026F00000EB8302D2F8043C23F4E02343EA854351
:1027000043F480330CE06AB121EA020300EB830258
:10271000D2F8043C23F0E06343EA856343F080731E
:10272000C2F8043C2269D3030BD5914300EB81002E
:10273000D0F8041C21F4E02141EA854141F4403104
:102740000BE062B1914300EB8100D0F8041C21F052
:10275000E06141EA856141F04071C0F8041CF00776
:1027600005D0DAF8001041F00101CAF80010B007F6
:1027700005D5DBF8001041F00101CBF800100BB0DB
:10278000484600F007B80000001000A0001400A0A8
:102790000010065030BCBDE8C08F2DE9F843174645
:1027A0000D460446FFF798F881462068866CD0F8FD
:1027B0001081606C042803D1E868B0F5800F04D064
:1027C00001201021A164BDE8F8834B46002220219E
:1027D0002046009703F0B8F80028F4D12168286853
:1027E000C1F8880021686868C1F8800021682869FC
:1027F000C1F89000D5E90201084321680A6822F077
:10280000435242F0005210430860E068B0F1806F1C
:10281000206804D0D0F8001111F4E06F01D0866474
:1028200001E0C0F810814B460122082120460097A4
:1028300003F08AF80028C6D12268082151620221DB
:102840006164C0E7F8B516460D460446FFF744F844
:102850000746606C022804D0142807D0242809D029
:102860000BE0E068B0F1806F0BD106E02868022829
:1028700007D002E02868012803D001201021A164BC
:10288000F8BD3B46002220212046009603F05CF86C
:102890000028F5D1A0642946204602F083FF0028D5
:1028A000EED1A96B49B12A6804218AB1012A626C70
:1028B00010D0142A0CD024210AE03B460122022128
:1028C0002046009603F040F8226802215162F8BDCC
:1028D0006164F8BD242AFBD01421F9E770B5040027
:1028E0004FF0000510D02068016821F0010101605F
:1028F0002068816821F002018160204600F0AEF876
:1029000000206064284670BD0125FBE7F8B5044649
:102910000025FEF7E1FF064624B10020A064606CAC
:1029200010B161E001255FE0204600F0C1F841F2FE
:102930008830E064216BE0682D4A0843218A63698E
:1029400002EB01426FF0FF0101EB03231A43104336
:10295000E269104322689368264D2B40184390602B
:10296000A08D22680004106120680268636822F468
:10297000F85201EB03210A430260E06C00903346F9
:1029800000222021204602F0DFFF05002CD1206824
:10299000C168226A21F0FF01521E1143C160206804
:1029A0000168A26821F0400111430160D4E90901E6
:1029B00008432168D1F8082122F0A0421043C1F851
:1029C00008012068016841F001010160A069022846
:1029D00004D12068816841F002018160E068B0F1B3
:1029E000806F03D0022060642846F8BD0120FAE71A
:1029F0000000FFFFF4F8E0F8F8B50D460446FEF7D6
:102A00006BFF0346606C1026042802D00120A664E8
:102A1000F8BDE06C009000222021204602F094FFD7
:102A20000028F5D188216164296808290AD1226823
:102A30006968C2F8301121684E6221680A6842F460
:102A400080120A6021682A680B68034C234043F017
:102A500040531A430A60F8BDF7FFFFCF10B5006876
:102A60000E49884219D10E48C16C21F48011C1640D
:102A7000016D21F4807101654FF464610948FEF72E
:102A800057FD4FF416410848FEF752FDBDE81040CF
:102A90004FF4E0610548FEF74BBD10BD001000A0EB
:102AA000001002400020004800180048001C0048A8
:102AB000F0B587B0044614216846FDF728FC32497A
:102AC000206888425ED1314CE06C40F48010E064B4
:102AD000E06C00F480100590206D40F4807020655B
:102AE000206D00F480700590206B40F480702063AE
:102AF000206B20F480702063E06C40F48010E06470
:102B0000E06C00F480100590206D40F4807020652A
:102B1000206D00F480700590E06C40F48070E064FB
:102B2000E06C00F480700590E06C40F04000E064E0
:102B3000E06C00F04000059000F02AF9E06C40F0F5
:102B40008000E064E06C022400F0800005904FF407
:102B500064600025032605278DE8F10069460C48CE
:102B6000FEF7B2FD4FF416408DE8F10069460948C2
:102B7000FEF7AAFD4FF4E0608DE8F10069460648D3
:102B8000FEF7A2FD07B0F0BD001000A0001002404B
:102B90000020004800180048001C00482DE9F843B8
:102BA00016460F460446FEF797FE8046206800F161
:102BB0005005816CD0F810213FB1636C042B07D015
:102BC00001201021A164BDE8F88301200821F9E764
:102BD000036C5B1CE363E36BA3636763036823F02D
:102BE000405343F080530360E068B0F1806F206889
:102BF00004D0D0F8003113F4E06F01D0816401E01B
:102C0000C0F810214346012206212046009602F01A
:102C10009BFE0028D7D12878616B0870606B401C40
:102C20006063E06B401EE063E06B0028EAD143463E
:102C3000012202212046009602F086FE0028C2D121
:102C40002268022151626164BDE72DE9F84316460E
:102C50000F460446FEF740FE8046206800F150050E
:102C60003FB1616C042907D001201021A164BDE8A7
:102C7000F88301200821F9E7016C491CE163E16B4D
:102C8000A1636763016821F040510160434601225E
:102C900004212046009602F057FE0028E7D1606B21
:102CA00000782870606B401C6063E06B401EE0633E
:102CB000E06B0028EAD1434601220221204600961B
:102CC00002F042FE0028D2D12268022151626164E2
:102CD000CDE700002B492C4B0A6832214A432B498F
:102CE00040B1B0F5007F086829D020F4C06040F4FE
:102CF00080602CE00868C0F34120022804D051F81D
:102D0000800F20F4807022E0D1F8800020F48070E1
:102D1000C1F88000086820F4C06040F400700860CA
:102D2000B2FBF3F0401C00E0401E4A69520501D599
:102D30000028F9D1486940050AD503207047C0F33F
:102D40004120022806D051F8800F40F480700860BE
:102D500000207047D1F8800040F48070C1F88000F6
:102D6000086820F4C06040F400700860B2FBF3F023
:102D7000401C00E0401E4A695205DBD50028F9D10D
:102D8000D8E700003C0D002040420F0000700040DA
:102D90000248416841F40071416070470070004092
:102DA00008480168C1F34121022906D0D0F880000B
:102DB000C00505D54FF4007070474FF48060704730
:102DC00000207047007000402DE9F84F04460026AF
:102DD0000088FB4D3746010504F1200B1ED5E06E3F
:102DE00040280AD003DC68B1202804D10FE0602815
:102DF00021D080281FD001260FE0E86840F4803001
:102E0000E86018E00021201D02F0F8FE03E0002138
:102E1000584602F087FF06000DD037462088C004D0
:102E20002BD5206FB0F5007F16D00DDCC8B1B0F502
:102E3000807F0FD11AE0D5F89C00E16E20F0E00011
:102E40000843C5F89C00E9E7B0F5407F13D0B0F522
:102E5000806F10D001260FE0E86840F48030E86011
:102E600009E00021201D02F0C9FE03E000215846C0
:102E700002F058FF0646F6B137462068800360D559
:102E8000A86D4FF00008C00009D4A86D40F0805034
:102E9000A865A86D4FF0010800F080500090DFF8A1
:102EA00024A3DAF8001041F48071CAF80010FEF78C
:102EB00013FD81460EE0D5F89C00216F20F4E06000
:102EC0000843C5F89C00D8E7FEF706FDA0EB090013
:102ED00002282DD8DAF80000C005F5D54EBBD5F88C
:102EE000900010F4407015D0D4F89810814211D0A1
:102EF000D5F89000D5F8901020F4407041F480315E
:102F0000C5F89010D5F8901021F48031C5F89010D4
:102F1000C5F89000C0077DD0FEF7DEFC814641F287
:102F2000883AACE0FEF7D8FCA0EB0901514572D914
:102F300003263746B8F1000F03D0A86D20F080506B
:102F4000A8652078C00707D0D5F88800E16B20F08D
:102F500003000843C5F888002078800707D5D5F816
:102F60008800216C20F00C000843C5F88800207808
:102F7000400707D5D5F88800616C20F03000084381
:102F8000C5F888002078000707D5D5F88800A16C1F
:102F900020F0C0000843C5F888002078C00607D597
:102FA000D5F88800E16C20F440700843C5F888002B
:102FB0002078800607D5D5F88800216D20F4406080
:102FC0000843C5F888002088800507D5D5F8880013
:102FD000616E20F440200843C5F888002088400531
:102FE00007D5D5F88800A16E20F440100843C5F835
:102FF00088002078400607D5D5F88800616D20F458
:1030000040500843C5F88800207800060AD5D5F856
:10301000880001E038E032E0A16D20F44040084330
:10302000C5F888002088C00507D5D5F88800E16D6F
:1030300020F440300843C5F888002068C00207D556
:10304000D5F89C00216E20F003000843C5F89C00D1
:1030500020884FF0006880044FF0806927D5D5F8AC
:103060008800616F20F040600843C5F88800606FF9
:10307000404513D1E86840F48010E86017E0D5F8C7
:10308000900080077FF54EAFD5F89000D4F89810E7
:1030900020F440700843C5F890004BE7484506D13E
:1030A0000121201D02F0AAFD060000D0074620687D
:1030B00000032ED5A06F4FF480418842D5F89C00C4
:1030C00004D140F48040C5F89C000BE020F480401F
:1030D000C5F89C00D5F88800A26F20F0406010432E
:1030E000C5F88800A06F404503D1E86840F480101F
:1030F00004E0884204D1E86840F48030E86008E0E9
:10310000484506D10121201D02F078FD060000D0BF
:1031100007462068400318D5D5F88800E16F20F0F5
:1031200040600843C5F88800E06F404504D1E86876
:1031300040F48010E86008E0484506D10121201DD8
:1031400002F05CFD060000D007462088400414D53C
:10315000D5F88800D4F8801020F040500843C5F816
:103160008800D4F88000B0F1805F06D10221201DD4
:1031700002F044FD060000D007462068C00308D5D1
:10318000D5F89C00D4F8841020F004000843C5F85A
:103190009C002068800208D5D5F89C00D4F88810DF
:1031A00020F018000843C5F89C002068400227D58D
:1031B000286820F080502860FEF78EFB80460BE0E8
:1031C0000010024000700040FEF786FBA0EB0800F4
:1031D000022801D9032612E028688000F4D476B9C9
:1031E000D5F89C00D4F88C1020F440300843C5F882
:1031F0009C000221584602F095FD060000D037469B
:103200002068000213D5D5F89C00D4F8901020F463
:1032100080500843C5F89C00D4F89000B0F5805F5A
:1032200005D10121584602F07DFD00B10746206816
:10323000C00110D5D5F89C0054F8941F20F440101C
:103240000843C5F89C002068B0F5001F03D1E8686A
:1032500040F48010E860384600F000B818BCBDE8C3
:10326000E08F00002DE9F0470E4605004FF0000703
:103270007ED0DFF85C81D8F8000000F00F00B0428B
:103280000CD2D8F8001021F00F013143C8F800101B
:10329000D8F8000000F00F00B04271D128784D4CF2
:1032A000C0074BD06868DFF8309103281ED0022891
:1032B0002ED0002820682ED04005002860DA00F0CB
:1032C00037F9484506D9A06820F0F00040F08000AA
:1032D000A0608027A068696820F003000843A06010
:1032E000FEF7FAFA814641F2883A20E02068800130
:1032F00046D502F0ABFD4845ECD9A06810F0F00FC0
:10330000E1D028788007E5D5A8680028DBD0E1E780
:1033100020688003D1E78007CFE700BFFEF7DCFA23
:10332000A0EB0901514502D90320BDE8F087A06850
:10333000696800F00C00B0EB810FEFD128788007AE
:1033400005D5A068A96820F0F000084304E0802FAC
:1033500003D1A06820F0F000A060D8F8001040462B
:1033600001F00F01B1420DD9016821F00F0100E019
:1033700006E031430160006800F00F00B04201D068
:103380000120D2E72878400705D5A068E96820F435
:10339000E0600843A0602878000706D5A068296986
:1033A00020F4605040EAC100A06000F0C1F8A168BC
:1033B0000A4AC1F30311515C01F01F01C8400849DA
:1033C000086008480068BDE8F047FEF723BE00002B
:1033D000002002400010024000B4C404CCB6010832
:1033E0003C0D0020340D00200F2202600C4A93682F
:1033F00003F003034360936803F0F0038360936872
:1034000003F4E063C36092684FF4E06303EAD2021E
:1034100002610448006800F00F0008607047000077
:10342000001002400020024010B53F2101603649E3
:103430000A6853034FF0000202D54FF4A02304E0C2
:103440000B68DB0303D54FF48033436000E0426038
:103450000B68DC074FF0010301D0836100E082615B
:103460004C68C4F30724C4610C6804F0F0040462DF
:103470000C68E40503D54FF48074C46000E0C260BA
:103480004C68C4F306640461D1F89040640702D527
:103490000524846006E0D1F89040E40701D0836001
:1034A00000E08260D1F89440E40701D0436100E07D
:1034B0004261D1F89840E40701D0436200E04262E3
:1034C0000A68D20102D50222826200E08362CA68E1
:1034D00002F00302C262CA68C2F30312521C026302
:1034E000CA68C2F306224263CA68C2F34152521C40
:1034F0005200C263CA68C2F34162521C52000264A5
:10350000C968C90E816310BD001002400548064914
:1035100000688968054AC1F30221515C01F01F016E
:10352000C84070473C0D0020001002400CB7010855
:1035300030B52149002210468B6813F00C04CB688B
:1035400003F003051D4B09D00C2C05D0042C01D031
:10355000082C00D1184630BD012D10D10A68120781
:1035600004D4D1F89420C2F3032202E00A68C2F323
:103570000312134D55F822204CB10C2CEBD1C86826
:1035800000F00300022804D0032803D101E0104614
:1035900030BD1A46C868CB68C0F30310C3F30623D6
:1035A0005343401CB3FBF0F2C868C0F34160401CB9
:1035B0004000B2FBF0F030BD001002400024F400E7
:1035C000DCB601082DE9F84304006FD0FA4DA86875
:1035D00000F00C06E86800F003072078C00664D508
:1035E00076B10C2E01D1012F0AD0A06900282868DD
:1035F0007AD040F001002860FEF76EF980465DE069
:103600002868800702D5A0690028DED0216A2868D2
:10361000000703D5286800F0F00004E0D5F8940016
:10362000F02202EA1010814216D9084602F044FC4A
:1036300000283BD1286840F0080028602868216AEB
:1036400020F0F000084328606868E16920F47F40BA
:1036500040EA0120686016E0286840F00800286011
:103660002868216A20F0F000084328606868E16952
:1036700020F47F4040EA0120686026B9206A02F009
:103680001BFC0028D5D1FFF753FFA968CB4AC1F333
:103690000311515C01F01F01C840C9490860C948C5
:1036A0000068FEF7B7FC00287ED12EE0CAE000BF1C
:1036B000FEF712F9A0EB0800022876D828688007E8
:1036C000F6D5286840F0080028602868216A20F0B4
:1036D000F000084328606868E16920F47F4040EA10
:1036E0000120686011E0FFE720F001002860FEF78C
:1036F000F3F8804606E000BFFEF7EEF8A0EB080006
:103700000228DAD828688007F6D42078C00740D08D
:10371000082E18D00C2E01D1032F14D06068B0F5FC
:10372000803F17D0B0F5A02F286817D020F4803044
:103730002860286820F4802028606068E0B1FEF7E7
:10374000CBF8804614E02868800322D56068002802
:1037500078D01EE0286840F48030EDE740F4802007
:103760002860F7E7FEF7B8F8A0EB08006428A4D8B3
:1037700028688003F6D50CE0FEF7AEF8804605E039
:10378000FEF7AAF8A0EB0800642896D82868800302
:10379000F6D4207880073BD5042E11D00C2E01D111
:1037A000022F0DD0E06801E0BAE1FFE000282868B0
:1037B0001ED040F480702860FEF78EF807460CE0BB
:1037C000286840050CD5E0680028C1D008E000BF9B
:1037D000FEF782F8C01B022893D828684005F7D569
:1037E0006868217C20F0FE4040EA016068600FE0DC
:1037F00020F480702860FEF76FF8074605E000BFF0
:10380000FEF76AF8C01B0228B1D828684005F7D433
:103810002078000729D560690028D5F8940012D0D7
:1038200040F00100C5F89400FEF756F8074604E0A2
:10383000FEF752F8C01B022899D8D5F894008007EB
:10384000F6D512E02BE120F00100C5F89400FEF758
:1038500043F8074605E000BFFEF73EF8C01B02280C
:1038600085D8D5F894008007F6D42078400766D52F
:10387000A86D0027C00008D4A86D40F08050A8654E
:10388000A86D012700F0805000904F480168C905DD
:1038900012D40168814641F480710160FEF71CF882
:1038A000804605E0FEF718F8A0EB080002287DD856
:1038B000D9F80000C005F5D5A068012816D0052864
:1038C000D5F8900017D020F00100C5F89000D5F889
:1038D000900020F0040000BFC5F89000A06841F2FD
:1038E0008839C0B1FDF7F8FF80460FE0D5F89000A9
:1038F00040F00100F0E740F00400C5F89000F5E763
:10390000FDF7EAFFA0EB080149454FD8D5F8900034
:103910008007F5D50EE0FDF7DFFF804606E000BF2B
:10392000FDF7DAFFA0EB080149453FD8D5F8900034
:103930008007F5D41FB1A86D20F08050A8652078CD
:10394000800628D5606A0028D5F8980012D040F08B
:103950000100C5F89800FDF7BFFF074605E000BF6E
:10396000FDF7BAFFC01B022820D8D5F898008007C1
:10397000F6D510E020F00100C5F89800FDF7ACFF87
:10398000074604E0FDF7A8FFC01B02280ED8D5F8B3
:1039900098008007F6D4A06AF0B3022816D00C2E47
:1039A0007DD0286820F08070286000E0B7E02868AB
:1039B00010F0205F74D0A4E000100240CCB60108E3
:1039C0003C0D0020340D002000700040E868E26AE1
:1039D00000F00301914228D1216B00F0F0020901AF
:1039E0001039914221D1626B00F4FE41B1EB022FFC
:1039F0001BD194F8382000F07841B1EBC26F14D19C
:103A0000A18F00F4C00249084905A1F500119142B7
:103A10000BD194F8401000E06EE04908490600F030
:103A2000C060A1F1007181424FD00C2E7FD0286878
:103A300040017CD42868C00079D4286820F08070C8
:103A40002860FDF749FF064605E000BFFDF744FF8B
:103A5000801B022863D828688001F7D4F4E90B01A1
:103A60006FF00F0202EB01110843218A520449084A
:103A700002EB4151A26841EA02210843217D4FF047
:103A80007E42490802EB41610843217B40EAC16064
:103A9000E968284A11400843E860286801E046E0E8
:103AA0002BE040F080702860E86840F08070E860AB
:103AB000FDF712FF044604E0FDF70EFF001B02288D
:103AC0002DD828688001F7D52FE0286880012CD4F4
:103AD000286840F080702860E86840F08070E860F6
:103AE000FDF7FAFE044604E0FDF7F6FE001B02288F
:103AF00015D828688001F7D517E0E86820F00300A2
:103B0000E860E8680C490840E860FDF7E5FE044617
:103B100008E000BFFDF7E0FE001B022802D90320E9
:103B2000BDE8F88328688001F4D40020F8E701207C
:103B3000F6E700000C809D01FFFFEEFE7047704726
:103B4000704710B5040003D094F83D0010B107E0B1
:103B5000012010BD002084F83C00204600F022F82F
:103B6000022084F83D00211D206802F041FB012065
:103B700084F8480084F83E0084F83F0084F8400050
:103B800084F8410084F8420084F8430084F844003B
:103B900084F8450084F8460084F8470084F83D0026
:103BA000002010BD7047000090F83D10012901D0A1
:103BB00001207047022180F83D100168CA6842F078
:103BC0000102CA6000681149884211D0B0F1804FEB
:103BD0000ED00F4988420BD00E49884208D00E49BA
:103BE000884205D00D49884202D00D49884207D14C
:103BF00081680C4A1140062906D0B1F5803F03D0F8
:103C0000016841F00101016000207047002C014073
:103C10000004004000080040000C00400034014057
:103C20000040014007000100704770B5044600687D
:103C300001694FF00005C943890715D4C168C9431C
:103C4000890711D4E91E016101202077206880696D
:103C50008007204602D0FFF7E7FF04E000F0A7F856
:103C6000204600F0A5F8257720680169C943490777
:103C700017D4C168C943490713D46FF00401016127
:103C8000022020772068806910F4407F204602D00F
:103C9000FFF7CAFF04E000F08AF8204600F088F839
:103CA000257720680169C943090716D4C168C9434B
:103CB000090712D46FF00801016104202077206801
:103CC000C0698007204602D0FFF7AEFF04E000F095
:103CD0006EF8204600F06CF8257720680169C9432A
:103CE000C90617D4C168C943C90613D46FF01001BF
:103CF0000161082020772068C06910F4407F2046C9
:103D000002D0FFF791FF04E000F051F8204600F0E8
:103D10004FF8257720680169C943C90708D1C168F0
:103D2000C943C90704D1891E0161204600F042F849
:103D300020680169C943090609D4C168C943090655
:103D400005D46FF0800101612046FFF7F8FE20687E
:103D50000169C943C90509D4C168C943090605D425
:103D60006FF4807101612046FFF7E8FE2068016969
:103D7000C943490609D4C168C943490605D46FF04F
:103D800040010161204600F01FF820680169C94325
:103D900089060BD4C168C943890607D46FF0200196
:103DA00001612046BDE87040FFF7CABE70BD704794
:103DB0007047000000680349884201D1FEF712B93C
:103DC00070470000001000407047FEE70148FDF713
:103DD000F8BD0000381D00200148FDF726BE000098
:103DE000381D0020806A0021826B02B19163C26B92
:103DF00002B1916300F050BB10B50022CC074FF028
:103E0000280306D090F84140422233EA040400D04F
:103E1000F2228C0707D590F8414042F04402A343B8
:103E200001D042F0B0020B0401D542F0B8021029D3
:103E300004D0202905D0402906D007E042F09002A6
:103E400004E042F0200201E042F040020068016814
:103E50009143016010BD01688A69D243920701D481
:103E600000228A6200688169C943C90703D0816959
:103E700041F00101816170472DE9F041044690F85D
:103E800041002821814320684FF000054FF00803CE
:103E900004D0C36184F84050BDE8F0818169C1F36A
:103EA00000478169FE2202EA11468168C1F30902D6
:103EB000C168D4F80CE001F0FE014FF4004CBEF1F3
:103EC000020F17D14FF0060E06F006060EEAD21EBC
:103ED00076450ED1A16C491CA164A16C0229DBD1ED
:103EE000A564C36184F8405039462046FDF74FFD74
:103EF000D2E70E4661462046FFF77EFF84F8405029
:103F00003246F1E770B5044690F84100002584F888
:103F10004250364AE2626585626C0A436264282830
:103F20001FD029281DD02A281BD048F20301204683
:103F3000FFF762FF94F84100602802D0202084F847
:103F400041006563206B2A4EA16B19B1112812D074
:103F5000212810D0E16BE9B3122824D0222822D0E6
:103F60003EE003212046FFF747FF282084F8410068
:103F700020486063E6E720680168490403D50168CA
:103F800021F480410160A06BFCF77EFD012827D061
:103F9000A06B866384F84050A06BFCF73DFD0028C1
:103FA00023D0A06B18E020680168090403D50168DC
:103FB00021F400410160E06BFCF766FD01280FD0A1
:103FC000E06B866384F84050E06BFCF725FD002829
:103FD0000BD000E004E0E06B816BBDE87040084767
:103FE0002046BDE8704000F057BA70BD0000FFFFEA
:103FF000E53D00084D43000870B504461648E062F0
:1040000000252563202084F8410084F84250C843ED
:104010006563400711D42068406A616A0870606A6D
:10402000401C6062208D40B1401E2085608D401E86
:104030006085606C40F00400606448F20301204633
:10404000FFF7DAFE21681020C86184F8405020464E
:10405000FDF7E5FD70BD00000000FFFF2DE9F04118
:1040600002680446156890F841000E462027D76183
:10407000212806D0292804D0222809D02A2807D0B0
:104080000DE048F201012046FFF7B6FE212005E0D1
:1040900048F202012046FFF7AFFE2220206320688D
:1040A000416841F40041416020684168354A11404F
:1040B00041602046FFF7CFFEE843410406D4206864
:1040C000016821F480410160A06B07E0000409D47D
:1040D0002068016821F400410160E06B10B10068C4
:1040E00040686085F04340070FD4206826F004063E
:1040F000406A616A0870606A401C6062208D20B16D
:10410000401E2085608D401E6085608D18B1606CFA
:1041100040F004006064002584F842506563606CE0
:1041200068B1616C2046FFF7EDFE94F84100282845
:1041300015D131462046BDE8F041FFF75DBFE06A8A
:10414000114EB0420DD0204600F020F8E66284F80F
:104150004170256384F840502046FDF760FDBDE8BE
:10416000F08194F8410084F841702228256384F896
:104170004050204602D0FDF734FFF0E7FDF730FF56
:10418000EDE7000000E800FE0000FFFF70B5044608
:1041900000680168002584F84250C9434A0403D4EA
:1041A000016821F4804104E0090403D4016821F48A
:1041B0000041016094F841102820292911D094F879
:1041C00041102A290CD184F84100222020630221C9
:1041D0002046FFF711FE84F840502046FDF700FF0F
:1041E00070BD84F841002120206301212046FFF7A3
:1041F00003FE84F840502046FDF7F3FE70BD00003A
:104200002DE9F0410446006890460E468069C0439F
:10421000C00633D40025202720688069C04380066B
:1042200015D5701CF8D0FDF757FBA0EB0800B04285
:1042300001D8002EF0D154F8440F40F0200044F88B
:1042400004096770A57025700120BDE8F081216820
:104250001020C8612068C7612046FFF7FCFD54F8B4
:10426000440B4168064A11404160206840F0040058
:1042700044F820096777A5772577E5E70020E4E78C
:1042800000E800FE2DE9F84304461646DDE90897EC
:1042900014489846DAB200900023204600F0E6F871
:1042A0003A464946204600F05EF9B8B9F5B2B8F191
:1042B000010F08D02168300A88623A4649462046F4
:1042C00000F051F950B9206885624B460022402128
:1042D0002046009700F0F5F8002800D00120BDE846
:1042E000F8830000002000802DE9F84304461646BC
:1042F00015489846DDE90897DAB2C30200902046D7
:1043000000F0B4F83A464946204600F02CF9B8B916
:10431000F5B2B8F1010F08D02168300A88623A4638
:104320004946204600F01FF950B9206885624B4687
:10433000002280212046009700F0C3F8002800D01A
:104340000120BDE8F8830000002000802DE9F04145
:10435000C56A044690F840008846012826D001200E
:1043600084F840006FEA0807B8066FEA020605D431
:10437000B00603D441462046FFF770FE3A49F806DE
:104380004FF0807231D4F0062FD4638D102083B1AA
:104390002168C861606C40F0040060640DB1954212
:1043A0005ED1616C2046FFF7ADFD59E00220BDE80B
:1043B000F08194F84120282A02D1B5F1007F04D081
:1043C00094F84120292A05D00CE041462046FFF709
:1043D00013FE45E08D4205D02168C8612046FFF7F5
:1043E0003AFD3AE02168C8613AE0780715D47007D1
:1043F00013D4608D60B12068406A626A1070606A90
:10440000401C6062208D401E2085608D401E6085AE
:10441000608D28BB8D4220D122E0380706D43007BA
:1044200004D441462046FFF727FD19E0B80717D40A
:10443000B00715D4608D68B1606A21680078886221
:10444000606A401C6062608D401E6085208D401E49
:10445000208505E0954200D015B92046FFF796FE6D
:10446000002084F84000A2E70000FFFFF0B50568D7
:10447000059C68684FF48066064FC1F3090106EA9F
:10448000545641EA02413E431943B0432143084395
:104490006860F0BDFF63FF0310B590F84120002174
:1044A000602A05D0016380F84010FDF7C6FA10BD00
:1044B000202280F84120016380F84010FDF766FA61
:1044C00010BD2DE9F0411D4617460E460446DDF8A5
:1044D000188008E0681C06D0FDF7FEF9A0EB080084
:1044E000A8420BD855B12068806936EA000012D086
:1044F0000020B842EED00020BDE8F08154F8440F0F
:1045000040F0200044F80409202060700020A070D2
:1045100020700120F0E70120EBE770B516460D464C
:1045200004460DE0324629462046FFF769FE08B1F1
:10453000012070BDFDF7D0F9801BA84207D835B126
:1045400020688069C0438006ECD4002070BD54F818
:10455000440F40F0200044F804092020607000203F
:10456000A0702070E4E770B516460D4604460FE0D3
:10457000324629462046FFF743FE08B1012070BDB0
:10458000681C05D0FDF7A8F9801BA84207D835B1F3
:1045900020688069C0438007EAD4002070BD54F8C9
:1045A000440F40F0200044F80409202060700020EF
:1045B000A0702070E2E700000100044810B5006818
:1045C00000D0012105F010FC012010BD100F0020CB
:1045D0001CB50B480121022301707C21417044214C
:1045E000CDE90010392200210648FCF77FFD0020AC
:1045F00001460090352315220248FCF764FE1CBDDD
:1046000003000020F01C00200EB507A002A90068DE
:1046100002902A20CDE90001042339220021034819
:10462000FCF764FD0EBD000000040189F01C0020B1
:104630000148FDF75FBD0000841D00200148FDF723
:1046400059BD0000841D0020F0B503688C88DD682A
:10465000C5F30B452C442504882404EBC2141E59D1
:1046600006F0F0261E5103680F68DE68C6F30B469D
:10467000761C3E442E431E5104688B89E568C5F3C1
:104680000A052B441D048C2303EBC213E65806F0E5
:10469000F026E65004688F68E668C6F30A06761CC2
:1046A0003E442E43E6509423046803EBC213E558BE
:1046B00025F00705E55005680C69EC5091F831309C
:1046C0000C7E1F0226069C24056804EBC21491F898
:1046D000323055F804C04FF0000C45F804C091F892
:1046E000305046EA03433D431D4303681D51982360
:1046F000046803EBC213E55825F0FF05E550056893
:104700004C69EC50A023046803EBC213E55840F257
:104710000776B543E550D1E907452C430568EC50D1
:10472000AC23046803EBC213E55844F803C00568E2
:104730004C6AEC500B698BB3012B32D0042B32D076
:10474000022B30D0032B2ED0072B2CD00123B024EA
:10475000056804EBC2142E5906F0E0262E51D1E96B
:104760000065AD1B0E8D5D435E43ED1C45EA0643BF
:1047700005682B51B423046803EBC213E5586FF3AB
:104780000A05E5500468C96AE1500068842101EB1C
:10479000C211425842F001024250F0BDFFE704232B
:1047A000D5E70323D3E70223D1E7000010B5164C69
:1047B00086B0E06C40F00200E064E06C694600F016
:1047C0000200059004200090012001900020039039
:1047D000022002900D48FCF777FF0720FDF730FE1E
:1047E000E06C40F48070E064E06C022100F48070C2
:1047F00005900748FCF79CFE0648FDF7C9F80548F8
:10480000FDF774FB06B010BD001002400004004824
:1048100000200048381D0020FCF7EABD0C4800B518
:10482000C16C87B041F00201C164C06C694600F000
:1048300002000590042000900120019002200390C6
:10484000002002900348FCF73FFF07B000BD0000C6
:1048500000100240000400480F4800B5C16C87B04A
:1048600041F48071C164C06C694600F480700590A9
:104870000220009000200290039008480190084810
:10488000FCF722FF0F2211460720FDF7F7FD072056
:10489000FDF7E7FD07B000BD001002400000111059
:1048A0000020004810B53223042284210348FDF77C
:1048B00021F9002800D000BE10BD0000381D0020E6
:1048C0001FB500228DF80C2040F6B834012303AA4E
:1048D0008DE81C000A4601460348FDF7A1F99DF842
:1048E0000C0004B010BD0000381D00203EB540F69D
:1048F000B8348DE81C000A46014601230148FDF743
:104900008FF93EBD381D002010B5084C012204214E
:104910002046FCF7DBFF0120FCF76AFD2046002261
:10492000BDE810400421FCF7D1BF0000000400489E
:1049300017B583B040F6B834012305AA8DE81C00F2
:104940000A4601460248FDF721FA06B010BD0000F4
:10495000381D00200F4810B50D49016000210222CA
:10496000C0E90112C1608161C161C0E910128164B6
:10497000C16401654165FBF7EFFF00B100BE012195
:104980000448FBF7FFFE002800D000BE10BD000069
:1049900000B00240901C00202DE9F04FFEA0AFB007
:1049A00000682C90FDA0002400682D9029942A9482
:1049B00024212B941AA8FBF7AAFC182123A8FBF7A3
:1049C000A6FC342102A8FBF7A2FC2C210FA8FBF7C0
:1049D0009EFCDFF8D083F24F4546C8F8007088F897
:1049E0001140FBF787FD3E1500213046FBF7AEFD79
:1049F0000520FCF7FDFC4FF4802A06215046FBF70A
:104A00005DFD4FF4807906214846FBF757FDFBF723
:104A100071FD01214846FBF799FD01214846FBF74E
:104A20004DFD00214846FBF791FD0120FCF7E0FC1D
:104A300001215046FBF78AFD01215046FBF73EFD60
:104A400000215046FBF782FD0F20FCF7D1FC01212D
:104A50003046FBF733FD01213046FBF777FD782028
:104A6000FCF7C6FCC5E900740427C5E902747D2083
:104A70002B94CDE9290729A94046FCF77DFA00B11E
:104A800000BE0125CDE91A541C941D941E941F9458
:104A9000209421941AA9C3482294FCF731F900B15B
:104AA00000BE1C202390212024900F202590192047
:104AB000CDE926040720289023A9BA48FCF791F9EC
:104AC00000B100BE0421B748FCF706F900B100BEF2
:104AD00042F21071B348FCF7DDFB00B100BE0021CB
:104AE000B048FCF795F800B100BE4FF40070CDF867
:104AF0000890CDE903068000059040000690400034
:104B0000CDE90704C000099040000A90CDE90BA44C
:104B10000D9402A9A3480E94FCF742F800B100BE20
:104B20000520CDE90F4011A94FF4C37010264FF0B6
:104B3000200B149781E841080220CDE91504A9460D
:104B40000FA998481794CDE91845FBF7A0FF00B1CD
:104B500000BE00219348FCF789FB00B100BED8F8E5
:104B600000104A6842F001024A60D8F8000040682C
:104B7000FE2300F00100152200218A48CDF80090A4
:104B8000FCF7A1FB62200090062315220021854836
:104B9000FCF799FB802000900E231522002181480C
:104BA000FCF791FB802000900F23152200217D4807
:104BB000FCF789FB71200090102315220021794811
:104BC000FCF781FB812000901323152200217548FA
:104BD000FCF779FB812000901423152200217148F5
:104BE000FCF771FB8220152300901A4600216D48C6
:104BF000FCF769FB822000901623152200216948EA
:104C0000FCF761FB882000901823152200216548DD
:104C1000FCF759FB552719231522002161480097FD
:104C2000FCF751FB1A23152200215E480096FCF781
:104C30004AFB992000901C23152200215948FCF7BB
:104C400042FB03251D231522002156480095FCF741
:104C50003AFB1E231522002152480095FCF733FB36
:104C60001F23152200214F480095FCF72CFB202321
:104C7000152200214B480095FCF725FB2523152222
:104C8000002148480095FCF71EFB8D20009026234C
:104C9000152200214348FCF716FB2A231522002188
:104CA00040480095FCF70FFB8D2000902B23152228
:104CB00000213C48FCF707FB362315220021394828
:104CC0000094FCF700FB372315220021354800969D
:104CD000FCF7F9FA3A231522002132480094FCF738
:104CE000F2FA3B23152200212E480094FCF7EBFA40
:104CF0003D23152200212B48CDF800B0FCF7E3FA44
:104D00003A2000903F23152200212648FCF7DBFAC9
:104D1000302000904023152200212248FCF7D3FACE
:104D20001A2000904123152200211E48FCF7CBFADF
:104D3000332000904223152200211A48FCF7C3FAC1
:104D4000222000904323152200211648FCF7BBFACD
:104D5000112000904423152200211248FCF7B3FAD9
:104D6000662000904523152200210E48FCF7ABFA7F
:104D70004623152200210B480097FCF7A4FA442093
:104D800000904723152200210648FCF79CFA3320A7
:104D90004C231522002107E0000401890000018551
:104DA000006C0140F01C00200090FE48FCF78BFADC
:104DB000222000904D2315220021FA48FCF783FAA7
:104DC000112000904E2315220021F648FCF77BFAB3
:104DD000662000904F2315220021F248FCF773FA59
:104DE000502315220021EF480097FCF76CFA44206D
:104DF0000090512315220021EA48FCF764FA332081
:104E00000090572315220021E648FCF75CFA1B208E
:104E100000906B2315220021E248FCF754FA70231E
:104E200015220021DF480097FCF74DFA0C20009076
:104E3000742315220021DB48FCF745FA022000907C
:104E4000FE2315220021D748FCF73DFA40279B237B
:104E500015220021D3480097FCF735FA9C23152230
:104E60000021D0480094FCF72EFA202000909D23CA
:104E700015220021CB48FCF726FAFE23152200213B
:104E8000C8480095FCF71FFA9B2315220021C5484E
:104E90000097FCF718FA9C2315220021C1480094C2
:104EA000FCF711FA202000909D2315220021BD4817
:104EB000FCF709FA04200090FE2315220021B948CE
:104EC000FCF701FA5D2315220021B6480096FCF795
:104ED000FAF94FF08D0A002315221946B148CDF892
:104EE00000A0FCF7F0F9012315220021AD48009441
:104EF000FCF7E9F94D46022315220021A948CDF817
:104F00000090FCF7E0F9032315220021A548009545
:104F1000FCF7D9F9042315220021A2480096FCF7DA
:104F2000D2F90523152200219E480095FCF7CBF904
:104F30004FF0A7090623152200219A48CDF80090CA
:104F4000FCF7C1F90723152200219648CDF800B0DF
:104F5000FCF7B9F908231522002192480094FCF7C8
:104F6000B2F9C2270923152200218E480097FCF7C9
:104F7000AAF90A23152200218A480094FCF7A3F914
:104F800002260B231522002186480096FCF79BF988
:104F90000C231522002183480095FCF794F940204A
:104FA00000900D23152200217E48FCF78CF9062085
:104FB00000900E23152200217A48FCF784F90F2374
:104FC0001522002177480095FCF77DF91023152262
:104FD00000217448CDF80090FCF775F911231522D3
:104FE000002170480094FCF76EF91223152200216D
:104FF0006C480097FCF767F91323152200216948D4
:105000000094FCF760F914231522002165480096EE
:10501000FCF759F915231A46002162480095FCF760
:1050200052F9402000901623152200215D48FCF71C
:105030004AF9072000901723152200215948FCF750
:1050400042F918231522002156480095FCF73BF938
:105050001923152200215348CDF80090FCF733F9AD
:105060001A23152200214F480094FCF72CF98220C6
:1050700000901B23152200214A48FCF724F91C2329
:105080001522002147480094FCF71DF9FF200090ED
:105090001D23152200214348FCF715F94FF005099F
:1050A0001E23152200213F48CDF80090FCF70BF994
:1050B000602000901F23152200213A48FCF703F9D5
:1050C00020231522002137480096FCF7FCF8212305
:1050D0001522002133480095FCF7F5F87C2000905C
:1050E0002223152200212F48FCF7EDF82323152257
:1050F00000212C480094FCF7E6F824231522002117
:1051000028480097FCF7DFF82523152200212548C1
:105110000094FCF7D8F80425262315220021214805
:105120000095FCF7D0F82723152200211D48009692
:10513000FCF7C9F870200090282315220021194897
:10514000FCF7C1F82923152200211648CDF800905C
:10515000FCF7B9F8742000902A2315220021114889
:10516000FCF7B1F82B23152200210E48CDF800A042
:10517000FCF7A9F82D23152200210A480094FCF71A
:10518000A2F82F231522002106480097FCF79BF870
:1051900030231522002103480094FCF794F83123B2
:1051A000152201E0F01C0020002166480095FCF764
:1051B0008AF832231522002162480096FCF783F812
:1051C000702000903323152200215E48FCF77BF805
:1051D000072000903423152200215A48FCF773F869
:1051E000742000903523152200215648FCF76BF8F7
:1051F0003623152200215348CDF800A0FCF763F8B0
:105200003723152200214F480094FCF75CF85E23F9
:10521000152200214B48CDF800B0FCF754F831209E
:1052200000905F23152200214648FCF74CF85420DB
:1052300000906023152200214248FCF744F87620B4
:1052400000906123152200213E48FCF73CF898208D
:1052500000906223152200213A48FCF734F8FE231F
:10526000152200213748CDF80090FCF72CF81720C4
:1052700000900523152200213248FCF724F82A2348
:10528000152200212F480095FCF71DF891231522C7
:1052900000212C480094FCF716F8FE23152200216B
:1052A00028480094FCF70FF83423152200212548E4
:1052B0000094FCF708F8C22315220021214800942D
:1052C000FCF701F82CA92A20CDE90001042339229A
:1052D00000211C48FBF70AFF2DA92B20CDE9000176
:1052E0000423392200211748FBF700FF1123052270
:1052F000002114480094FBF7E6FF7820FCF778F8CB
:10530000C82000905123152200210E48FBF7DBFF37
:105310002823052200210B480094FBF7D4FF00B19D
:1053200000BED8F80000D0F8041441F00801C0F81D
:105330000414D0F8040400F0080000902FB000F02E
:1053400003B80000F01C002030BCBDE8C08F000096
:10535000194810B517490160002180F82410402237
:10536000C0E90121154AC0E903214161816101774A
:10537000FCF798F800B100BE114B012200210E4845
:10538000FCF748F800B100BE0D4B4FF4C37408336E
:10539000224600210848FCF73DF800B100BE40F26B
:1053A0007A2221460448FCF759F8002800D000BEB4
:1053B00010BD000000C002400C1D002000000420B1
:1053C0004C00002030B587B014216846FAF79FFFE3
:1053D000274CE06C40F48070E064E06C00F4807076
:1053E0000590E06C40F04000E064E06C00F04000AC
:1053F0000590FDF7CDFCE06C40F00200E064E06C4D
:1054000000F002000590E06C40F08000E064E06C89
:1054100000F080000590E06C40F02000E064E06C5B
:10542000144D00F020000590002210212846FCF7C2
:105430004DFA0220009010480024CDE9010469468D
:105440000E48FCF741F9102000900120CDE901043D
:105450000320039069462846FCF736F9002205210F
:105460000720FDF70BF80720FCF7FBFF07B030BD66
:1054700000100240001C00480000111000200048ED
:10548000194810B5174901601849416000210122EF
:10549000C0E90212016141618161C1610162FCF7F1
:1054A000CDFA00B100BE00210F48FCF71BFA00B195
:1054B00000BE00210C48FCF740FA00B100BE0C4CC5
:1054C000842021688847E2680A4984209047122294
:1054D00023694FF4007184209847BDE81040FFF71E
:1054E000BBB9000000540040381D0020B175703079
:1054F000880C0020FFFF030070B58EB03421684691
:10550000FAF705FF2A48FCF7E8FD294C2948002551
:10551000206084F8A1506560A560E56025610120E8
:105520006561C4E90650206240F287106062A062A3
:10553000401CE062206384F8345084F8355084F8CD
:1055400036502046FCF73CFE00B100BE4FF4C3705D
:10555000CDE9005002210295CDE90301FF21CDE9FB
:1055600005154FF48061079105210891C106CE14FD
:10557000CDE90A608DF8305009918DF831508DF8E1
:105580003250002269460A48FCF77EFD00B100BE99
:10559000002231460648FCF7F1FE00B100BE20684B
:1055A00050F8841F41F0010101600EB070BD000091
:1055B000841D002000680140F0B59BB0142114A8A0
:1055C000FAF7A5FE3F4D3E4C28462C60FDF786F9C4
:1055D00000B100BE0427C5E900470024B805C5E9AD
:1055E00002401A2002262861C5E90564C5E907467C
:1055F000F006C5E90940EC6232482C63FDF786F9F4
:1056000000B100BE304841F28835CDE916602F4820
:105610001890149615962A4614A92A48FCF760FF9C
:1056200000B100BE274800F081FC00B100BE01209F
:10563000FBF7DEFE0121234800F0AAF900B100BE0D
:10564000204800F070FE00B100BE0120CDE900044A
:105650001020CDE90370800107904FF4405008906E
:105660004FF080600E90062011904EF6116002906F
:1056700008200590000209900B940004109080000F
:10568000CDE912042A4669460E48FDF7DBF800B161
:1056900000BE41F2ED20119402902A466946009620
:1056A0000848FDF7CFF800B100BE19A905481994C4
:1056B000FDF7A2F9002800D000BE1BB0F0BD00002D
:1056C000001000A02C1E00200200010002000001BA
:1056D00014F0F6BCFEE77047F0B50024234658B13D
:1056E000022809D841B100220A604A608A60CA6073
:1056F0000A61022802D002E001244CE0274B284D29
:10570000002000BF05EB8002D2F8042CD60707D09A
:1057100002F0020603F00207BE4201D1461C0E60F1
:10572000D60607D502F0200603F02007BE4201D1BD
:10573000461C4E60D60507D502F4007603F40077C8
:10574000BE4201D1461C8E60D6030FD502F48026DE
:1057500003F48027BE4209D1960300F1010602D46A
:1057600046F4803601E046F08076CE60D6010FD553
:1057700002F0806603F08067BE4209D1920100F119
:10578000010202D442F4803201E042F080720A61E8
:10579000401C0228B6D32046F0BD000022020404BB
:1057A00000100650F0B502680026136823F040533D
:1057B0001360826832B9026813684C6823F0800372
:1057C000234313600A68022A0268144628D004F5AD
:1057D000847504F5887302F5807204F5907400BF37
:1057E000D1E9127C47EA0C071760CF6A6FB18F6A64
:1057F00027604F6BCC6AD2F800C03C430F6B2CF48F
:105800007C1C47EA0C073C4314602C684F6C24F066
:105810001F043C432C608C6B7CB10C684CB10CE0D9
:1058200004F5C47504F5C87302F5C07204F5D074AC
:10583000D6E7CC6B0568641E2C64CC68002C5DD068
:10584000CD694FF0805C9DB38F6BAFB1D1F814C0C0
:1058500044EA0C04D1F810C04CEA050C4D6A44EA45
:105860000C042C430D6A2C430D6C3C432C431568EF
:10587000334F3D402C4317E04F693C430F692F43A2
:105880004D6A3C432C430D6A2C43156843F63F7721
:10589000BD432C431460846A644506D14C69082CCE
:1058A00003D1146844F0006414608A681A603EE012
:1058B000FFE78D6B65B148690443086928430443D9
:1058C000086C044310681F4D28400443146012E024
:1058D0004D6917682C430D6927F03F073D432C4362
:1058E0001460806A604506D14869082803D11068B1
:1058F00040F000601060886818601BE0CB69DBB185
:105900008C6B5CB14D6A2B430D6A25430C6C2B43A9
:10591000234314680A4D3F352C4006E04C6A156855
:1059200023430C6A25F47C552C4323431360896977
:10593000006881643046F0BD01260821F9E70000C7
:10594000C0C0FFF0C0FFFFF02DE9F04198461646B9
:105950000F460446069D08E0681C06D0FBF7BCFF16
:10596000A0EB0800A8420AD84DB12068006A384070
:1059700000D00120B042EFD10020BDE8F0814FF40B
:1059800000706064A06C40F00100A0640120F4E7A6
:105990002DE9F34F9BB000244FF44050CDE90804AB
:1059A00010270094019405940B94B8041094129459
:1059B00019971394CDE9174001264FF0050A4FF0CF
:1059C000807B4FF0020841F28835012905D01B98F1
:1059D00000F0A9FC00287DD1B0E006200290CDE9BE
:1059E000036407941194B1460E9441F288326946DB
:1059F0001B98FCF727FF0028EDD1CDE90EB9CDF8B3
:105A000008A0CDF858804546CDF8548041F2883939
:105A10005646D8464A4669461B98FCF713FF0028AD
:105A2000D9D1CA464A4615A91B98FCF7B6FE0028EC
:105A3000D1D14FF0720B4FF440704FF48079CDF814
:105A400008B0CDE9060907208DF850005246694696
:105A50001B98FCF7F7FE0028BDD141F2883214A94B
:105A60001B98FDF7F2F80028B5D14FF0060A07940D
:105A7000CDF808A041F2883269460E941B98FCF7D5
:105A8000E1FE0028A7D1029641F28836CDF8388091
:105A9000324669461B98FCF7D5FE00281AD13246DB
:105AA00015A91B98FCF779FE002813D1CDF808B092
:105AB000CDE906498DF85050324669461B98FCF7EF
:105AC000C1FE002806D1324614A91B98FDF7BDF887
:105AD000002800E06CE06BD12820FBF789FC314600
